:102A6D00E4FDFCC3ED9FEC9E500F7BC8AA031BEA4F
:092A7D0070FA0DBD00010C80EAA5
:012A8600222D
:102A8700E4FDFCC3ED9FEC9E500F7BFAAA031BEA03
:092A970070FA0DBD00010C80EA8B
:012AA0002213
:10282300C2DA8FD800000000000000000000C2DC04
:1028330000000000000000000000C2DB00000000F8
:10284300000000000000D2DA0000000000000000D9
:0328530000002260
:1022810090FF93EEF0A3EFF090FF94E090FF97F0B2
:1022910090FF93E0F5E6AF05ECF0A3EFF090FF942B
:1022A100E090FF98F090FF93E0F5E7E5F754F644EE
:1022B10001F5F790FF98E0FF90FF97E08FF0A4FF02
:1022C10090FF94E5F0F0A3EFF090FF96E5E6F09033
:1022D100FF93E5E7F053F7F6E0FCA3E0FDA3E0FE92
:0422E100A3E0FF2255
:1025660090FF93EEF0A3EFF090FF94E090FF97F0CA
:1025760090FF93E0F5E6AF05ECF0A3EFF090FF9443
:10258600E090FF98F090FF93E0F5E7E5F754F64406
:1025960001F5F790FF98E0FF90FF97E08FF08490A9
:1025A600FF93F0A3E5E6F053F7F690FF93E0FEA362
:0325B600E0FF2221
:1021AB0090FF93120B2B90FF96E0A3F090FF95E01E
:1021BB00F5E690FF94E0F5CE90FF93E0F5CF90FF1E
:1021CB008BE0FFA3E090FF93CFF0A3EFF090FF9491
:1021DB00E090FF98F090FF93E0F5E7E5F754F644B5
:1021EB0009F5F790FF98E0FF90FF97E08FF0849050
:1021FB00FF93F0A3E5E6F0A3E5CEF0A3E5CFF05314
:10220B00F7F690FF93E0FCA3E0FDA3E0FEA3E0FF55
:01221B0022A0
:10221C0090FF93120B2B90FF96E0A3F090FF95E0AC
:10222C00F5E690FF94E0F5CE90FF93E0F5CF90FFAC
:10223C0091E0FFA3E090FF93CFF0A3EFF090FF9419
:10224C00E090FF98F090FF93E0F5E7E5F754F64443
:10225C0009F5F790FF98E0FF90FF97E08FF08490DE
:10226C00FF93E5F0F0A3E5E7F053F7F690FF93E06A
:05227C00FEA3E0FF22BB
:100D1F00122C387F031228237F0A7E00122A6D754A
:100D2F00944812240B122BB8122C42122B2F122C78
:100D3F0017122BA790FF3DE054FEF0E0547FF0E434
:100D4F0090FF43F090FF3BF0D2AFE51664A57046DD
:100D5F00E517645A7040F516F5177FA57E5AFDFC0E
:100D6F00AB0DAA0CA90BA80AC3120B1A6017E475D6
:100D7F000DA5750C5AF50BF50AF518F519F520F5B3
:100D8F0021F522F5237D057F0D122889E4FF121F1F
:100D9F00C0122C0B8003122730D2FF120076E50F02
:100DAF0030E02D530FFEE509640160091226EB12A6
:100DBF001CEC1225B9E50964026015E509640160B0
:100DCF000FE50964076009122947122349122137D9
:100DDF00E509B40B0050C2900DEDF8282873020EF0
:100DEF0013020E0E020E18020E1D020E22020E35F7
:100DFF00020E53020E7A020DA8020EA9020E6912FC
:100E0F0014FB80951217988090121AC5808B122AA6
:100E1F00A1808612285690FF41E030E103020DA811
:100E2F00122B44020DA812285690FF41E030E10327
:100E3F00020DA8122B58E4FDFF122889E4FF121FA0
:100E4F00C0020DA8121C3FE4F524F52530B105F5BD
:100E5F0009020DA8122B44020DA890FF32E0640680
:100E6F006003020DA8122B44020DA890FF32E06020
:100E7F0003020DA8D3E525942CE524940140081214
:100E8F001C3FE4F524F52590FF41E020E103020D1E
:100E9F00A81228EE750905020DA890FF32E064062E
:0F0EAF006003020DA8122B44020DA8020DA82209
:0A2C380043A00C75910275A36622FB
:10240B0075807BE4F59175A51675A46675A3667545
:10241B00A21143A660F59075910175A51175A411D4
:10242B0075A31175A21175A00C75910275A5117587
:10243B00A43375A36975A21175B00375910375A5C6
:10244B001175A41175A36175A2C1E5EF54FB44048A
:0A245B00F5EFC2B253F7DFD2FB2207
:102B2F00E58954F04401F589758CFC758A67C28D6F
:052B3F00D28CD2A92296
:0B2C1700E5F7543F4480F5F7D2FF22A0
:0A2C420053957F75BF0443A90422D7
:03004B000226A2E8
:1026A200C0E0C0F0C083C082C0D075D000C000C0FE
:1026B20001C002C003C004C005C006C00753957F15
:1026C200E509B4020912000E430E02430E08D007B8
:1026D200D006D005D004D003D002D001D000D0D093
:0926E200D082D083D0F0D0E032A8
:0300430002260C86
:09260C00C0E0C0D075D000C00789
:10261500E4FFAF91E59530E131E58530E00E759148
:1026250000E59630E6035396BF5385FEE58530E316
:1026350016759103E59630E0035396FEE59630E175
:0C264500035396FD5385F75395FD8F91CC
:07265100D007D0D0D0E03229
:0300730002004147
:01004100328C
:03000B00021026BA
:10102600C0E0C0F0C083C082C0D075D000C000C090
:1010360001C002C003C004C005C006C007758CFC11
:10104600758A67051FE51FC3946450030210E77590
:101056001F00430F01430F040525E52570020524F3
:10106600051BE51B7002051AE509B402080511E522
:1010760011700205100508E508C3940A4063750857
:1010860000430F02E50964027057051490FF53E010
:10109600FFB401190521E52170020520D39424E54A
:1010A600209477403C7520777521248034EFB40274
:1010B600190523E52370020522D39424E5229477AB
:1010C600401F75227775232480170519E5197002CC
:1010D6000518D39424E51894774006751877751982
:1010E60024E5096402707490FF51E030E52A90FF10
:1010F6005CE004F0E0C394634002E4F090FF5CE03F
:10110600FDB40F0790FF51E04408F0EDB41E1290B5
:10111600FF51E04480F08009D2A390FF5AE054FECC
:10112600F090FF51E030E62A90FF67E004F0E0C35C
:1011360094634002E4F090FF67E0FDB40F0790FF70
:1011460051E04410F0EDB41E1290FF51E04480F0DF
:101156008009D28690FF5AE054FDF090FF04E00427
:10116600F090FF28E004F0120415D007D006D00551
:10117600D004D003D002D001D000D0D0D082D0830A
:05118600D0F0D0E032C2
:102AEB00E4FDFCC3ED9FEC9E500C00000000000DBC
:062AFB00BD00010C80ED9E
:012B010022B1
:0F2BB800E59454F3FFF594E5EF54FC4404F5EF76
:012BC70022EB
:0C2BD700E5B654E04FF5B6AF05120778E4
:012BE30022CF
:10299C00E5B654E04FF5B6E5EF54FE4404F5EFD23E
:1029AC00FC20FCFDAFABEF75F010A4FFAEF0E5AA78
:0829BC00C4540FFDEEEF4DFFC6
:0129C40022F0
:0507780090FF69EFF0A5
:10077D00E490FF6BF0A3F0A3740FF0A374FFF0905F
:10078D00FF75120B3700000000E490FF6AF0D2FCF9
:10079D0020FCFDAFAA90FF71E4F0A3EFF0AFABA387
:1007AD00E4F0A3EFF090FF6AE004F0E0B402DFE4C0
:1007BD0090FF6AF090FF69E0FFA3E0C39F40030242
:1007CD000891D2FC20FCFDAFAA90FF71E4F0A3EFDD
:1007DD00F0AFABA3E4F0A3EFF0E0C4F8540FC8689A
:1007ED00FF90FF73E0C454F048540FFEEF54F0FF38
:1007FD0090FF6FEEF0FCA3EFF0FDA3E0C4F854F012
:10080D00C868FEA3E0C4540F48FFEC4EFEED4FFF49
:10081D0090FF6FEEF0A3EFF0C390FF6CE09F90FFA1
:10082D006BE09E500F90FF6FE0FFA3E090FF6BCF4A
:10083D00F0A3EFF090FF6DE0FEA3E0FFA3E0FCA3BB
:10084D00E0FDC39FEC9E500890FF6DECF0A3EDF022
:10085D0090FF75E0F8A3E0F9A3E0FAA3E0FB90FFA9
:10086D006FE0FEA3E0FFE4FCFDEB2FFFEA3EFEEDA3
:10087D0039FDEC38FC90FF75120B2B90FF6AE004EC
:10088D00F00207C190FF69E0D394025003020951B1
:10089D0090FF75E0FCA3E0FDA3E0FEA3E0FFC00622
:1008AD00C00790FF6DE0FEA3E0FFFBAA06E4D007B2
:1008BD00D006EF9BFFEE9AFEED9400FDEC9400FC4C
:1008CD0090FF75120B2B90FF75E0FCA3E0FDA3E0EC
:1008DD00FEA3E0FFC006C00790FF6BE0FEA3E0FFA4
:1008ED00FBAA06E4D007D006C3EF9BFFEE9AFEED00
:1008FD009400FDEC9400FC90FF75120B2B90FF758E
:10090D00E0FCA3E0FDA3E0FEA3E0FFC006C007905E
:10091D00FF69E024FEFFE434FFFEAB07FA3395E0F8
:10092D00F9F8D007D006120A7290FF75120B2B90B2
:10093D00FF75E0A3E0A3E0FFA3E090FF6FCFF0A36E
:10094D00EFF0803890FF75E0FCA3E0FDA3E0FEA37F
:10095D00E0FFC00790FF69E0FFFBE4FAF9F8D0076C
:10096D00120A7290FF75120B2B90FF75E0A3E0A396
:10097D00E0FFA3E090FF6FCFF0A3EFF090FF6FE0EB
:04098D00FEA3E0FFE6
:010991002243
:102972000DAC0DDE0E100E420E5B0E740E8D0EA609
:102982000EBF0ED80EE70EF60F050F140F320F41D1
:0A2992000F500F6E0FA00FD21004BB
:102947007D0A7F0B122BD7E4AB07AA06F9F8FFFE27
:102957007D4BFC120A7290FF44EEF0A3EFF0241EA9
:0A296700FFE43E90FF47F0A3EFF0FD
:012971002243
:10234900C390FF48E0944890FF47E0940D400990FE
:10235900FF3DE04420F0800790FF3DE054DFF0901E
:10236900FF3DE0FFC413135401FFE0FEC413540101
:10237900B50705E490FF43F090FF43E004F0C394F0
:1023890064401EE4F090FF3DE05420FF25E0FFE0AB
:1023990054BF4FF0E020E609E04480F0E490FF40AC
:0223A900F02220
:1021370090FF3DE030E2067A0A7B2880047A087B2C
:10214700FCC390FF48E09B90FF47E09A400990FF4F
:102157003DE054FDF0800790FF3DE04402F090FF22
:102167003DE0FF13135401FFE0FEC3135401B5070D
:1021770005E490FF3BF090FF3BE004F0C39464401C
:1021870022E4F090FF3DE05402FF25E0FFE054FB1E
:102197004FF0E030E20DE04401F0E04480F0E490DD
:0321A700FF40F006
:0121AA002212
:101F3F0090FF48E0242DFF90FF47E03400FE12157C
:101F4F00EF90FF40E0FEEFD39E5028C3EE9FD39457
:101F5F000A401490FF4DE004F0D3940F400EE4F0CC
:101F6F0090FF40EFF08005E490FF4DF0E490FF4FBD
:101F7F00F08005E490FF4DF090FF40E0FEC3944BDE
:101F8F0050047F1E800CEEC3945F50047F3C800290
:101F9F007F5A90FF4FE004F0E0D39F4013E4F0909E
:101FAF00FF40E094645006E004F0E4F5141227B308
:011FBF0022FF
:1025B90020A20990FF41E04401F0800790FF41E02B
:1025C90054FEF090FF41E05401FFE0FEC3135401B3
:1025D900B50705E490FF3AF090FF3AE004F0C394A0
:1025E9000A401FE4F090FF41E05401FF25E0FFE0BD
:1025F90054FD4FF0E030E105A37401F022E490FFAF
:0326090042F0227A
:1028EE00E50964046026E4F524F52590FF4EF0908A
:1028FE00FF49F0A3F090FF3CE090FF39F0E4FD7F3C
:0D290E0005122889E4FF121FC0750904227C
:102B190090FF4E7402F0E4F51490FF49F0A3F09091
:062B2900FF407464F0227D
:1016C40090FF4AE004F0700690FF49E004F090FFB8
:1016D40048E02491FF90FF47E03400AB07FA90FF05
:1016E4004EE0146026147003021782240260030281
:1016F4001797D390FF4AE0940590FF49E094005077
:101704000302179790FF4E7401F022C390FF4AE042
:10171400949490FF49E094114004122B1922C3EBD6
:101724009436EA9410402790FF49E0FEA3E0FF7C42
:10173400007D0F120992ED4C705990FF40E0C39464
:10174400645007E004F0E4F51422122B1922C3EBD1
:1017540094A0EA940F403C90FF49E0FEA3E0FF7C94
:10176400007D3C120992ED4C702990FF40E0C39437
:10177400645007E004F0E4F51422122B1922D390EC
:10178400FF4AE0940F90FF49E09400400690FF4E1A
:031794007403F0EB
:01179700222F
:10285600E50F30E22D530FFB90FF46E004F0C394E2
:1028660064401FE4F0121F3F1216C490FF3DE03093
:10287600E71090FF40E0D39400400790FF3DE054FE
:032886007FF022BE
:0815EF0090FF69EEF0A3EFF09C
:1015F700E4FBEB25E02472F582E43429F583E493D8
:10160700FE740193FFD390FF6AE09F90FF69E09E0D
:1016170040050BEBB415DBEBC3941540057B640267
:1016270016B9EBD3940050030216B9EB25E02470EA
:10163700F582E43429F583E493FE740193FFEB25E7
:10164700E02472F582E43429F583C37401939FFF84
:10165700E4939EFE7C007D0512099290FF6BEEF0ED
:10166700A3EFF0EB25E02470F582E43429F583E459
:1016770093FE740193FFC390FF6AE09FFF90FF6999
:10168700E09E90FF6DF0A3EFF090FF6DE0FEA3E00A
:10169700FF90FF6BE0FCA3E0FD120992A3EEF0A31D
:1016A700EFF0D3940540027F051BEB75F005A4FB13
:0C16B7002FFBEBD3946440027B64AF0374
:0116C3002204
:1027B30090FF40E0FF700590FF3CF022EFD3940AB6
:1027C300500790FF3C7401F022EFD3941E50079002
:1027D300FF3C7402F022EFD3943C500790FF3C740B
:0A27E30003F02290FF3C7404F02282
:1027730090FF47E0FEA3E0FF1215EF90FF40E0FE5D
:10278300EFC39E5014E514C394284023E4F514EEDC
:10279300D39401401AE014F022E514C3943C400F93
:0F27A300E4F514EED39401400690FF40E014F0EB
:0127B2002204
:100B6800D2A475910253A4F07F0A7E00122AEB30BA
:100B7800A408430E01530EFD8076C2A390FF5AE0ED
:100B88004401F07F147E00122AEB20A408530EFEC5
:100B9800430E028052759102E5A454F04430F5A446
:100BA8007F1E7E00122AEB7F0F12299C90FF62EEB7
:100BB800F0A3EFF0D39478EE940F4008530EFE5351
:100BC8000EFD80237F0F12299C90FF62EEF0A3EFA9
:100BD800F0D39478EE940F4008530EFE530EFD8028
:100BE80006530EFE430E02D2A390FF5AE054FEF0C5
:100BF800E50E30E110122C0B7D057F0D122889E4DB
:100C0800FF121FC022D2A575910253A40F7F0A7E3E
:100C180000122AEB30A508430E04530EF78076C263
:100C28008690FF5AE04402F07F147E00122AEB20DF
:100C3800A508530EFB430E088052759102E5A45493
:100C48000F4403F5A47F1E7E00122AEB7F101229A1
:100C58009C90FF55EEF0A3EFF0D39478EE940F40FC
:100C680008530EFB530EF780237F1012299C90FF28
:100C780055EEF0A3EFF0D39478EE940F4008530E9E
:100C8800FB530EF78006530EFB430E08D28690FFE7
:100C98005AE054FDF0E50E30E310122C0B7D057F71
:100CA8000D122889E4FF121FC02290FF59E0B401F9
:100CB80016E50E30E0477D037F0D122889E4FF1208
:100CC8001FC0122C0B803690FF59E0B40116E50EB8
:100CD80030E22A7D037F0D122889E4FF121FC0121B
:100CE8002C0B8019E50E20E005E50E30E20F7D03A0
:100CF8007F0D122889E4FF121FC0122C0BE50E206D
:100D0800E205E50E30E20F7D037F0D122889E4FF2E
:070D1800121FC0122C0B2278
:1027300090FF3DE054FEF0E0547FF0E4F524F525F1
:10274000F513FD7F01122889E4FF121FC0122947EB
:1027500090FF47E0FEA3E0FF1215EF90FF40EFF07F
:10276000E490FF50F090FF43745AF090FF3BF075F7
:032770000901223A
:1014FB00E509640160030215EEE5131460750460E1
:10150B00030215EEE50F20E1030215EE530FFD125A
:10151B00294712234912213790FF48E02491FF906D
:10152B00FF47E03400FE1215EFAD0790FF40E0FEE1
:10153B00EFD39E4008EF9E90FF68F0800A90FF402B
:10154B00E0C39D90FF68F090FF68E0C3940A5018C9
:10155B0090FF50E004F0E0C3941450030215EE75B5
:10156B001301E4F524F5252290FF40EDF0E490FF04
:10157B0050F022431C01531CFDE4F514750DA575A9
:10158B000C5AF50BF50AF518F519F520F521F5228E
:10159B00F52390FF5304F0E4F516F51790FF51E097
:1015AB0054DFF0E054BFF090FF40E0701190FF3D2E
:1015BB00E04480F0E054BFF0E054DFF0800F90FF88
:1015CB003DE0547FF0E04440F0E04420F0E490FF35
:1015DB0043F0122BA71220BE12118B122B44E4F5F1
:0315EB0024F525BF
:0115EE0022DA
:102B4400E4F524F525FD7F061228897F01121FC0B4
:042B5400E4F5092279
:10179800E509600302186990FF7AE030E14C90FF98
:1017A8003DE020E70D90FF40E0600790FF3DE0300E
:1017B800E0107D0A7F07122889E4FF121FC0122C4F
:1017C8000B22E52670107D0A7F14122889E4FF1287
:1017D8001FC0122C0B22120B68E50960030218695E
:1017E80012277312118B122BE42290FF41E030E193
:1017F8000FD3E5259464E524940040041228EE22D2
:1018080090FF32E0FF6036B40A17D3E52594C8E5A7
:10181800249400400CE4FD7F061228897F01121FE2
:10182800C0D3E525942CE52494014035E4FDFF124E
:101838002889E4FF121FC0E4F524F5252290FF7AD9
:10184800E020E11D20B11A90FF82E0FF90FF86E0C2
:10185800B5070ED3E525942CE52494014003122BFB
:021868009422C8
:0C2C0B0012000EE4F524F52575090322E3
:102AA10090FF32E0FF6003B4060E90FF7AE020E170
:092AB10007E4F524F525F50922DE
:102B9400E4F524F525FDFF122889E4FF121FC07512
:032BA400090622FD
:101C3F00C2AFC28CC2A9122C3812240BD283D28409
:101C4F00D285C282C2A0C2A1C2B7C2B6C2B5C2916A
:101C5F00C297E5F754DF4420F5F7C2FB53EFFBD2F1
:101C6F0096759101E5A554F04409F5A543B00375A8
:101C7F009103E5A2540F44C0F5A2D2A2E4F591E579
:101C8F00A354F04409F5A3E5A954FD4402F5A9E4D2
:101C9F00F595D2AFE5F754DF4420F5F7E58754FD0E
:101CAF004402F58753F7DF00000000000053A9FD41
:101CBF00E4F595122C387F031228237F0A7E001239
:101CCF002A6D75944812240B122BB8122C42122B2A
:0D1CDF002F122C17122BA71220BED2AF22FD
:102AD300E4F524F525F513FD7F0E122040E4FD7F78
:082AE300131228897509422233
:01004200229B
:102ABA00E509B40A13E4FD7F061228897F01121F73
:092ACA00C0E4F524F525F509220C
:102B5800E4FDFF122889E4FF121FC0E4F524F525DF
:042B680075090722C2
:10118B00AE18AF19E4FCFD90FF69120B2BAE20AF2C
:10119B0021E4FCFD90FF6D120B2BE47F64FEFDFC44
:1011AB0090FF6DE0F8A3E0F9A3E0FAA3E0FB1209CE
:1011BB00E7E47B64FAF9F8120A7290FF6D120B2BBD
:1011CB00AE22AF23E4FCFD90FF71120B2BE47FC822
:1011DB00FEFDFC90FF71E0F8A3E0F9A3E0FAA3E0B9
:1011EB00FB1209E7E47B64FAF9F8120A7290FF71BB
:1011FB00120B2B90FF6DE0FCA3E0FDA3E0FEA3E040
:10120B00FF90FF69E0F8A3E0F9A3E0FAA3E02FFF5A
:10121B00EA3EFEE93DFDE83CFC90FF71E0F8A3E0FF
:10122B00F9A3E0FAA3E02FFFEA3EFEE93DFDE83C1F
:10123B00FC90FF69120B2BE47F247E77FDFC90FF63
:10124B0069E0F8A3E0F9A3E0FAA3E0FBC3120B1AE1
:10125B004004E4F5262290FF69E0F8A3E0F9A3E04F
:10126B00FAA3E0FBC374249BFF74779AFEE499FD09
:10127B00E498FC90FF71120B2B90FF71E0FCA3E044
:10128B00FDA3E0FEA3E0FFE47B317A01F9F8120A3B
:10129B007290FF71120B2B90FF71E0A3E0A3E0A300
:0D12AB00E0FF0FEFD3946440027F648F26B4
:0112B8002213
:0F2BC8000CE40DAC0D480C4E0D160CB20E101493
:102A300090FF59E0FFB4010A90FF5F740CF0A3749B
:102A4000E4F0EFB4020A90FF5F740CF0A37480F01E
:012A50002263
:041B8800AB07AA06F7
:101B8C00AE04AF05E4FCFD90FF6E120B2BAE02AF62
:101B9C0003E4FCFD90FF72120B2B90FF6EE0FCA394
:101BAC00E0FDA3E0FEA3E0FFA804A905AA06FB1232
:101BBC0009E790FF6E120B2B90FF72E0FCA3E0FD87
:101BCC00A3E0FEA3E0FFA804A905AA06FB1209E7FF
:101BDC0090FF72120B2B90FF6EE0FCA3E0FDA3E0D4
:101BEC00FEA3E0FFE47B63FAF9F81209E790FF6EBD
:101BFC00120B2B90FF6EE0FCA3E0FDA3E0FEA3E034
:101C0C00FFA3E0F8A3E0F9A3E0FAA3E0FB120A7249
:101C1C0090FF6E120B2B90FF6EE0A3E0A3E0A3E00D
:101C2C00FFD3946340047F638008EFC39433500266
:021C3C007F33F4
:011C3E002283
:10000E00D2A390FF5AE054FEF0D286E054FDF09059
:10001E00FF51E054DFF0E054BFF0E4F516F517534E
:05002E001CFDC2B2221E
:10004E0090FF59E0FDB4010C90FF51E04420F0E028
:10005E0054BFF022EDB4020B90FF51E04420F0E0CB
:04006E004440F022F8
:101D8900D2B2E490FF43F090FF65F0A3F090FF64B6
:101D9900F090FF51E054FDF0E054FBF090FF47E074
:101DA900FEA3E0FF90FF5FE0FCA3E0FD121B88901B
:101DB900FF61EFF0E490FF5CF090FF51E054F7F021
:101DC900E490FF57F0A3F090FF52F090FF61E0908C
:101DD900FF54F090FF677414F090FF51E054EFF056
:101DE900E490FF5DF0A3F090FF5BF090FF51E054A9
:101DF9007FF0E04401F0E4F524F525F510F511FD37
:101E09007F031228897F01121FC012004E7516A583
:071E190075175A431C022259
:0D2BE400122A30121D89E4F5137509022232
:101AC500E50964026003021B87C3E51194E8E5108C
:101AD5009403401312000E7D027F09122889E4FF4A
:101AE500121FC0122C0B2290FF7AE020E117120082
:101AF5000EE4FD7F061228897F01121FC0E4F5243C
:101B0500F525F50922122A0DE5096402707490FF86
:101B150051E030E52390FF61E0FF90FF5CE0C39F5B
:101B2500500BC2A390FF5AE04401F08014D2A39059
:101B3500FF5AE054FEF08009D2A390FF5AE054FE0C
:101B4500F090FF51E030E62390FF54E0FF90FF67EF
:101B5500E0C39F500BC28690FF5AE04402F0801408
:101B6500D28690FF5AE054FDF08009D28690FF5A44
:101B7500E054FDF0122A0DE509B40206122B0212FB
:031B85001E2022FD
:102B0200122465E509B4020E1219391224BBE50933
:072B1200B402031219FF22B7
:101E200090FF51E020E703021EB2E0547FF07F0BE9
:101E300012299C90FF66E02FF090FF65E03EF09045
:101E4000FF64E004F0E0C394054067A3E0FEA3E074
:101E5000FF7C007D05120992E4AB07AA06F9F8FFA2
:101E6000FE7D4BFC120A7290FF44EEF0A3EFF024CB
:101E700091FFE43EFE90FF47F0A3EFF0E490FF6592
:101E8000F0A3F090FF64F0C3EF9480EE940C501D2B
:101E900090FF43E004F0941E401812000E7D0A7F6C
:101EA00007122889E4FF121FC0122C0B22E490FFB6
:021EB00043F0FD
:011EB200220D
:1024650090FF51E030E54E90FF5AE030E04775911E
:1024750002E5A454F04430F5A47F0F12299C90FF87
:1024850062EEF0A3EFF0C39478EE940F50277F0F20
:1024950012299C90FF62EEF0A3EFF0C39478EE94BE
:1024A5000F501212000E7D057F0D122889E4FF12D0
:0624B5001FC0122C0B22D7
:1019390090FF51E020E5030219FEE020E3030219BC
:10194900FEE054F7F090FF62E0FEA3E0FF90FF583D
:10195900E02FF090FF57E03EF090FF52E004F0E0F6
:10196900C3940550030219FE90FF57E0FEA3E0FF60
:101979007C007D0512099290FF68EEF0A3EFF0E478
:1019890090FF57F0A3F090FF52F0FCFD90FF6A1210
:101999000B2B90FF44E0FEA3E0FFE4FCFD90FF6AFF
:1019A900E0F8A3E0F9A3E0FAA3E0FB1209E790FF4E
:1019B9006A120B2B90FF6AE0FCA3E0FDA3E0FEA3F3
:1019C900E0FFE4FB7A10F9F8120A7290FF6A120B31
:1019D9002B90FF6AE0A3E0A3E0FEA3E0FF90FF687D
:1019E900EEF0A3EFF090FF5FE0FCA3E0FD121B888F
:0519F90090FF61EFF01A
:0119FE0022C6
:1024BB0090FF51E030E64E90FF5AE030E1477591C6
:1024CB0002E5A4540F4403F5A47F1012299C90FF3E
:1024DB0055EEF0A3EFF0C39478EE940F50277F10D6
:1024EB0012299C90FF55EEF0A3EFF0C39478EE9475
:1024FB000F501212000E7D057F0D122889E4FF127A
:06250B001FC0122C0B2280
:1019FF0090FF51E020E603021AC4E020E403021A2C
:101A0F00C4E054EFF090FF55E0FEA3E0FF90FF5EBF
:101A1F00E02FF090FF5DE03EF090FF5BE004F0E020
:101A2F00C394055003021AC490FF5DE0FEA3E0FFCC
:101A3F007C007D0512099290FF68EEF0A3EFF0E4B1
:101A4F0090FF5DF0A3F090FF5BF0FCFD90FF6A123A
:101A5F000B2B90FF44E0FEA3E0FFE4FCFD90FF6A38
:101A6F00E0F8A3E0F9A3E0FAA3E0FB1209E790FF87
:101A7F006A120B2B90FF6AE0FCA3E0FDA3E0FEA32C
:101A8F00E0FFE4FB7A10F9F8120A7290FF6A120B6A
:101A9F002B90FF6AE0A3E0A3E0FEA3E0FF90FF68B6
:101AAF00EEF0A3EFF090FF5FE0FCA3E0FD121B88C8
:051ABF0090FF54EFF060
:011AC40022FF
:102A0D00E50E20E105E50E30E318530EFD530EF7EC
:102A1D0012000E7D057F0D122889E4FF121FC012D2
:032A2D002C0B224D
:102B800041FF0C004CFF173F065B4F666D7D077FD2
:032B90006F00FFD4
:101FC000EF701090FF05E054FBF0E054EFF0E054A8
:101FD0007FF02290FF05E020E218E490FF0DF090E2
:101FE000FF05E04401F0E490FF38F090FF05E04485
:101FF00004F090FF53E0702390FF05E054EFF0E011
:1020000020E73C90FF16E04401F0E490FF08F090D8
:10201000FF33F090FF05E04480F02290FF05E0548C
:102020007FF0E020E41990FF347464F090FF05E045
:1020300054DFF0E490FF0BF090FF05E04410F02235
:10204000AC0790FF06E06F607490FF05E054FBF072
:10205000E490FF38F090FF08F090FF0BF090FF2520
:10206000F0EC64026013EC6405600EEC6409600936
:10207000EC64066004ECB40E1EE490FF0DF090FFDB
:1020800005E04401F0E490FF34F090FF05E04420C7
:10209000F0E04404F08015ECB4031190FF0D74647B
:1020A000F090FF05E054FEF0E04404F090FF37EDBF
:0E20B000F0E490FF09F0A3F090FF06ECF022A0
:100EBE0090FF05E020E20302102590FF38E004F0D9
:100ECE0090FF25E004F0C3946E5003020F7CE4F013
:100EDE0090FF05E030E01490FF0DE004F0E0946424
:100EEE00402E90FF05E054FEF0802590FF0DE0C3EC
:100EFE009401400AE014F0E490FF24F0801290FF79
:100F0E0024E004F0C39412400790FF05E04401F082
:100F1E0090FF05E030E71290FF33E004F0C3948CAD
:100F2E00400790FF05E0547FF090FF05E030E43E6F
:100F3E00E030E51590FF34E004F0E0C39464402EF9
:100F4E0090FF05E054DFF0802590FF34E0C394015C
:100F5E00400AE014F0E490FF01F0801290FF01E0EF
:100F6E0004F0C3940A400790FF05E04420F090FF80
:100F7E000DE0FF90FF38E0C39F500F90FF05E04457
:100F8E0002F0122C2D120003801790FF38E0D3943C
:100F9E0064500990FF05E054FDF08005E490FF38A1
:100FAE00F090FF05E030E73190FF08E004F090FF8D
:100FBE0033E0FF90FF08E0FEC39F500990FF16E05C
:100FCE004402F08014EED3948C500990FF16E05436
:100FDE00FDF08005E490FF08F090FF05E030E43767
:100FEE0090FF0BE004F090FF34E0FF90FF0BE0C3A6
:100FFE009F500E90FF05E04440F0122C2D1200037E
:10100E002290FF0BE0D39464500890FF05E054BF8C
:08101E00F022E490FF0BF02228
:1028890090FF32E06F602B90FF23EDF090FF32EF65
:10289900F0E490FF26F0A3F090FF29E04401F090C6
:1028A900FF32E0B4130790FF027401F022E490FFB5
:0328B90002F02208
:1028BC00AB07AA06D3EB9464EA940040047A007B3D
:1028CC00637C007D0AAF03AE0212099290FF36EFD3
:1028DC00F0AE02AF037C007D0A12099290FF2AED44
:0128EC00F0FB
:0128ED0022C8
:1012B90090FF36E02417F582E434FFF583E0FD3032
:1012C900E00790FF0EE04402F0ED30E10790FF0ED9
:1012D900E04404F090FF36E02417F582E434FFF58A
:1012E90083E030E20790FF0EE04408F090FF36E01B
:1012F9002417F582E434FFF583E0FD30E30790FF1E
:101309000EE04410F0ED30E40790FF0EE04420F0C9
:1013190090FF36E02417F582E434FFF583E030E5E9
:101329000790FF0EE04440F090FF36E02417F58265
:10133900E434FFF583E030E60790FF0FE04401F065
:1013490090FF2AE02417F582E434FFF583E0FD30AD
:10135900E00790FF0FE04404F0ED30E10790FF0F44
:10136900E04408F090FF2AE02417F582E434FFF501
:1013790083E030E20790FF0FE04410F090FF2AE08D
:101389002417F582E434FFF583E0FD30E30790FF8D
:101399000FE04420F0ED30E40790FF0FE04440F007
:1013A90090FF2AE02417F582E434FFF583E030E565
:1013B9000790FF10E04401F090FF2AE02417F5821E
:1013C900E434FFF583E030E60790FF10E04402F0D3
:0113D90022F1
:1013DA0090FF36E02417F582E434FFF583E0FD3010
:1013EA00E00790FF10E04410F0ED30E10790FF10A5
:1013FA00E04420F090FF36E02417F582E434FFF54C
:10140A0083E030E20790FF10E04440F090FF36E0BE
:10141A002417F582E434FFF583E0FD30E30790FFFB
:10142A0011E04401F0ED30E40790FF11E04402F0CE
:10143A0090FF36E02417F582E434FFF583E030E5C7
:10144A000790FF11E04404F090FF36E02417F5827C
:10145A00E434FFF583E030E60790FF11E04410F032
:10146A0090FF2AE02417F582E434FFF583E0FD308B
:10147A00E00790FF11E04420F0ED30E10790FF1102
:10148A00E04440F090FF2AE02417F582E434FFF5A7
:10149A0083E030E20790FF12E04401F090FF2AE077
:1014AA002417F582E434FFF583E0FD30E30790FF6B
:1014BA0012E04402F0ED30E40790FF12E04404F039
:1014CA0090FF2AE02417F582E434FFF583E030E543
:1014DA000790FF12E04408F090FF2AE02417F582F3
:1014EA00E434FFF583E030E60790FF12E04420F091
:0114FA0022CF
:0B2C2200AF11AE101228BC1212B92234
:1029C500A907E9D394634011E4FFFE1228BC121253
:1029D500B990FF10E04408F022AF017E001228BC38
:0329E5001212B912
:0129E80022CC
:1029E900A907E9D394634011E4FFFE1228BC12132E
:1029F900DA90FF12E04440F022AF017E001228BCB9
:032A09001213DACB
:012A0C0022A7
:0D2BF100AD0790FF14E04402F01229C52248
:0D2BFE00AD0790FF14E04404F01229E92215
:1022E500AD07EF702590FF32E0FE64056015EE64E2
:1022F50013601090FF29E030E01090FF0EE04404D9
:10230500F0800790FF0EE04404F0EDC39401400C0B
:1023150090FF0EE04404F0A3E04404F0EDC3940202
:10232500400790FF11E04404F0EDC394034007908B
:10233500FF12E04404F0EDC39404400790FF13E05E
:042345004404F0223A
:10251100AD07EF701690FF32E06413600E90FF2953
:10252100E030E00790FF0EE04408F0EDC394014075
:102531000C90FF0EE04408F0A3E04408F0EDC394D2
:1025410002400790FF14E04404F0EDC394034007F8
:1025510090FF15E04404F0EDC39404400790FF168A
:05256100E04404F0223B
:1026580090FF26E0FEA3E0FF7C007DC8120992ED02
:102668004C703690FF29E030E31990FF02E004F047
:10267800E0D3940A4023E4FD7F061228897F0112E3
:102688001FC02290FF02E0700AFDFF122889E412A1
:0A2698001FC02290FF02E014F022A0
:10186A0090FF26E0FEA3E0FF7C007DFA120992EDCC
:10187A004C700E90FF02E004F0E0D394074002E4BB
:10188A00F090FF02E0FDC39401400790FF13E0448B
:10189A0001F0EDC39402400A90FF13E04401F044C2
:1018AA0002F090FF02E0C39403400D90FF13E0445E
:1018BA0001F04402F04404F090FF02E0FDC39404F6
:1018CA00401090FF13E04401F04402F04404F04455
:1018DA0008F0EDC39405401390FF13E04401F0446F
:1018EA0002F04404F04408F04410F090FF02E0C310
:1018FA009406401690FF13E04401F04402F04404B9
:10190A00F04408F04410F04440F090FF02E0C39421
:10191A0007401B90FF13E04401F04402F04404F036
:0F192A004408F04410F04440F0A3E04401F022E0
:10291B0090FF0CE01460111460182402701D12005B
:10292B003B120046122C4F2212003E120046122C74
:0C293B004F2212003B122C4C122C4F2299
:0B2C2D0090FF14E04410F04420F0225F
:0800030090FF14E04408F02214
:03003B00C283225B
:03003E00D2832248
:03004600C284224F
:032C4C00D284220D
:032C4F00C2852219
:032C5200D2852206
:032C5500D2822206
:032C5800C2822213
:102A510090FF13E04401F04402F04404F04408F014
:0C2A61004410F04440F0A3E04401F022D7
:102B6C00E4FD740E2DF582E434FFF583EFF00DEDEA
:032B7C00B407EFAC
:012B7F002233
:1023AB0090FF29E054FBF0E4FC740E2CF582E4342E
:1023BB00FFF583E0FE742B2CF582E434FFF583E00C
:1023CB006E600990FF29E04404F080050CECB40723
:1023DB00D890FF29E030E227E054FBF0C2A9E4FCDF
:1023EB00740E2CF582E434FFF583E0FF742B2CF58F
:0F23FB0082E434FFF583EFF00CECB407E3D2A9D2
:01240A0022AF
:1000760090FF28E0C3940A5003020414E4F090FFB2
:1000860027E004F0700690FF26E004F090FF26E0DB
:10009600FEA3E0FFE4FCFD7B607AEAF9F8C3120BED
:1000A600045007E490FF26F0A3F0E4FFFE122B6C49
:1000B6007FFA90FF32E0B405030E7FF4AC06AD077D
:1000C60090FF26E0FEA3E0FF120992ED4C702B9004
:1000D600FF29E020E006E04401F0801E90FF29E0C1
:1000E60054FEF090FF23E0D39400400EE014F0702D
:1000F60009FDFF122889E4121FC090FF32E0B415F3
:10010600004003020411900113F8282873020152DB
:100116000201610204110201CE02041102039202DD
:1001260001860202690202E00202E00202310204D2
:10013600110204110203450204110204110202E035
:100146000201770201770202690202A612003E123C
:100156002C4C122C52122C58020411122C5512003F
:100166003B120046122C4F74FFFFFE122B6C02044A
:1001760011122C5812003E122C4C122C5202041151
:1001860090FF59E0700790FF32F0020411122C55CF
:1001960012003B120046122C4F90FF40E0FF122B3C
:1001A600F1AF26122BFE122A5190FF59E0FFB4013F
:1001B60006122C2D020411EF6402600302041112D0
:1001C6002C2D12000302041190FF59E0700790FFD6
:1001D60032F002041190FF26E0FEA3E0FF7C017DD1
:1001E600F4120992ED4C700E90FF0CE004F0E0D38F
:1001F60094024002E4F012291B90FF40E0FF122B0C
:10020600F1AF26122BFE12186A122C5590FF59E0F8
:10021600FFB40106122C2D020411EF6402600302E2
:100226000411122C2D120003020411122C55120077
:100236003B120046122C4F90FF40E0FF122BF1AF0D
:1002460026122BFE90FF59E0FFB40106122C2D0258
:100256000411EF64026003020411122C2D12000334
:1002660002041190FF29E030E01D122C5512003BCC
:10027600120046122C4F90FF40E0FF122BF1122C79
:100286002D120003122A5190FF29E030E0030204E8
:1002960011122C5812003E122C4C122C5202041130
:1002A60090FF29E030E01A122C5512003B1200464E
:1002B600122C4F122C2D120003122A51AF26122B8C
:1002C600FE90FF29E030E003020411122C581200C0
:1002D6003E122C4C122C5202041190FF29E020E011
:1002E6000C122C5812003E122C4C122C5290FF2944
:1002F600E020E003020411122C5512003B120046C6
:10030600122C4F7F58122BF17F58122BFE90FF12A2
:10031600E04440F090FF10E04408F090FF53E0FF07
:100326007009122C2D122A51020411EF6401600388
:10033600020411122C2D120003122A5102041190EC
:10034600FF29E020E00C122C5812003E122C4C1211
:100356002C5290FF29E020E003020411122C5512C2
:10036600003B120046122C4F7F58122BF17F581279
:100376002BFE90FF12E04440F090FF10E04408F09E
:10038600122C2D120003122A5102041190FF4EE086
:100396001460371460581460662403706E90FF4032
:1003A600E0FF1229C590FF29E020E00790FF14E046
:1003B6004402F0122C5512003B120046122C4F122A
:1003C6002A51122C2D120003804190FF40E0FF12AB
:1003D60029C590FF29E020E00790FF14E04402F0D1
:1003E600122C5812003E122C4C122C52801D90FFDB
:1003F60040E0FF1229C590FF14E04402F0800C1281
:0E0406002C5812003E122C4C122C521223AB1A
:0104140022C5
:1027ED00D2A0D2A1D2B7D2B6D2B5D291D29775918D
:1027FD0001E5A2540F4410F5A2E5A5540F4410F5C0
:10280D00A575910275A211759103E5A4540F44109D
:06281D00F5A475A51122CF
:1004150090FF15E004F0C394035003020777E4F05E
:100425001227ED90FF3DE030E00302077790FF32A1
:10043500E0700302077790FF03E0B4070040030272
:10044500076990044EF82828730204630204D30256
:1004550005430205B30206230206930206FFC2A066
:1004650090FF2BE0FF30E10B759102E5A2540F449C
:1004750060F5A2EF30E20B759103E5A5540F4460DA
:10048500F5A590FF2BE030E30B759103E5A554F03E
:100495004406F5A590FF2BE0FF30E40B759103E5CD
:1004A500A4540F4460F5A4EF30E50B759101E5A266
:1004B500540F4460F5A290FF2BE020E60302076984
:1004C500759101E5A5540F4460F5A5020769C2A120
:1004D50090FF2CE0FF30E00B759102E5A254F0444B
:1004E50006F5A2EF30E20B759103E5A5540F4460C4
:1004F500F5A590FF2CE030E30B759103E5A554F0CD
:100505004406F5A590FF2CE0FF30E40B759103E55B
:10051500A4540F4460F5A4EF30E50B759101E5A2F5
:10052500540F4460F5A290FF2CE020E60302076912
:10053500759101E5A5540F4460F5A5020769C2B799
:1005450090FF2DE0FF30E00B759102E5A254F044D9
:1005550006F5A2EF30E10B759102E5A2540F446058
:10056500F5A290FF2DE030E30B759103E5A554F05E
:100575004406F5A590FF2DE0FF30E40B759103E5EA
:10058500A4540F4460F5A4EF30E50B759101E5A285
:10059500540F4460F5A290FF2DE020E603020769A1
:1005A500759101E5A5540F4460F5A5020769C2B62A
:1005B50090FF2EE0FF30E00B759102E5A254F04468
:1005C50006F5A2EF30E10B759102E5A2540F4460E8
:1005D500F5A290FF2EE030E20B759103E5A5540FCF
:1005E5004460F5A590FF2EE0FF30E40B759103E51F
:1005F500A4540F4460F5A4EF30E50B759101E5A215
:10060500540F4460F5A290FF2EE020E6030207692F
:10061500759101E5A5540F4460F5A5020769C2B5BA
:1006250090FF2FE0FF30E00B759102E5A254F044F6
:1006350006F5A2EF30E10B759102E5A2540F446077
:10064500F5A290FF2FE030E20B759103E5A5540F5D
:100655004460F5A590FF2FE0FF30E30B759103E5AE
:10066500A554F04406F5A5EF30E50B759101E5A21B
:10067500540F4460F5A290FF2FE020E603020769BE
:10068500759101E5A5540F4460F5A5020769C2916E
:1006950090FF30E0FF30E00B759102E5A254F04485
:1006A50006F5A2EF30E10B759102E5A2540F446007
:1006B500F5A290FF30E030E20B759103E5A5540FEC
:1006C5004460F5A590FF30E0FF30E30B759103E53D
:1006D500A554F04406F5A5EF30E40B759103E5A4A8
:1006E500540F4460F5A490FF30E030E67775910132
:1006F500E5A5540F4460F5A5806AC29790FF31E0E7
:10070500FF30E00B759102E5A254F04406F5A2EF27
:1007150030E10B759102E5A2540F4460F5A290FFFC
:1007250031E030E20B759103E5A5540F4460F5A562
:1007350090FF31E0FF30E30B759103E5A554F044DC
:1007450006F5A5EF30E40B759103E5A4540F44605D
:10075500F5A490FF31E030E50B759101E5A2540F4A
:100765004460F5A290FF03E004F0E0D39407400253
:03077500E4F0228B
:102BA700E490FF81F090FF7AE054FEF0E054FDF0EE
:012BB70022FB
:1026EB0030B10990FF7AE04401F0800790FF7AE067
:1026FB0054FEF090FF7AE0FFC3135401FFE0540146
:10270B00B50705E490FF81F090FF81E004F0C394DE
:10271B00034011E4F090FF7AE05401FF25E0FFE065
:05272B0054FD4FF022F7
:1020BE00759101E5A554F04403F5A5E490FF85F074
:1020CE00A3F07F0A12299C90FF83EEF0A3EFF0C3DA
:1020DE009496EE9400500890FF867401F0801DC314
:1020EE0090FF84E094F490FF83E09401500890FFF9
:1020FE00867402F0800690FF867403F090FF86E0EF
:10210E00FF90FF82F0BF0106E490FF59F02290FF8E
:10211E0082E0B4020790FF597401F02275090A1289
:09212E002ABA90FF597402F02254
:101CEC00759101E5A554F04403F5A5E490FF86F049
:101CFC007F0A12299C90FF83EEF0A3EFF0C3949619
:101D0C00EE9400500D90FF867401F0E490FF59F0B2
:101D1C00801DC390FF84E094F490FF83E094015005
:101D2C000890FF867402F0800690FF867403F09092
:101D3C00FF82E0FF90FF86E0FEB50705E490FF858B
:101D4C00F090FF85E004F0C3940F4030E4F090FF76
:101D5C0082EEF0BE010CE490FF59F0750907122BCE
:101D6C00582290FF82E0B4020790FF597401F022D0
:0D1D7C0075090A122ABA90FF597402F0226C
:03000000021EB32A
:0C1EB300787FE4F6D8FD758126021EFA47
:10099200BC000BBE0029EF8DF084FFADF022E4CC49
:1009A200F875F008EF2FFFEE33FEEC33FCEE9DEC12
:1009B200984005FCEE9DFE0FD5F0E9E4CEFD22ED58
:1009C200F8F5F0EE8420D21CFEADF075F008EF2FA2
:1009D200FFED33FD4007985006D5F0F222C398FD93
:0509E2000FD5F0EA2230
:1009E700E88FF0A4CC8BF0A42CFCE98EF0A42CFCAF
:1009F7008AF0EDA42CFCEA8EF0A4CDA8F08BF0A42D
:100A07002DCC3825F0FDE98FF0A42CCD35F0FCEB8B
:100A17008EF0A4FEA9F0EB8FF0A4CFC5F02ECD3950
:0F0A2700FEE43CFCEAA42DCE35F0FDE43CFC22BD
:100A360075F008758200EF2FFFEE33FECD33CDCC77
:100A460033CCC58233C5829BED9AEC99E5829840FA
:100A56000CF582EE9BFEED9AFDEC99FC0FD5F0D6D7
:100A6600E4CEFBE4CDFAE4CCF9A88222B800C1B901
:100A76000059BA002DEC8BF084CFCECDFCE5F0CB3F
:100A8600F97818EF2FFFEE33FEED33FDEC33FCEB78
:100A960033FB10D703994004EB99FB0FD8E5E4F933
:100AA600FA227818EF2FFFEE33FEED33FDEC33FC20
:100AB600C933C910D7059BE99A4007EC9BFCE99A14
:100AC600F90FD8E0E4C9FAE4CCFB2275F010EF2F59
:100AD600FFEE33FEED33FDCC33CCC833C810D70759
:100AE6009BEC9AE899400AED9BFDEC9AFCE899F894
:0E0AF6000FD5F0DAE4CDFBE4CCFAE4C8F92227
:100B0400EB9FF5F0EA9E42F0E99D42F0EC6480C868
:060B140064809845F02208
:100B1A00EB9FF5F0EA9E42F0E99D42F0E89C45F031
:010B2A0022A8
:0C0B2B00ECF0A3EDF0A3EEF0A3EFF0223D
:100B3700A8828583F0D083D082120B4E120B4E12FF
:100B47000B4E120B4EE473E493A3C583C5F0C58324
:100B5700C8C582C8F0A3C583C5F0C583C8C582C808
:010B6700226B
:101EBF00020D1FE493A3F8E493A34003F68001F20D
:101ECF0008DFF48029E493A3F85407240CC8C33324
:101EDF00C4540F4420C8834004F456800146F6DFF3
:101EEF00E4800B0102040810204080902B80E47ED8
:101EFF00019360BCA3FF543F30E509541FFEE493E8
:101F0F00A360010ECF54C025E060A840B8E493A3AE
:101F1F00FAE493A3F8E493A3C8C582C8CAC583CAD9
:101F2F00F0A3C8C582C8CAC583CADFE9DEE780BE91
:012B93000041
:00000001FF
